:100000000C948C020C94C4020C94C4020C94C40290
:100010000C94C4020C94C4020C94C4020C94C40248
:100020000C94C4020C94C4020C94401F0C94122033
:100030000C94441A0C94C4020C94C4020C94C40290
:100040000C94C4020C94C4020C94C4020C94C40218
:100050000C94C4020C94CD1A0C94C4020C94C402E7
:100060000C94C4020C94C4020C94C4020C94C402F8
:100070000C94C4020C94C4020C94C4020C94C402E8
:100080000C94C4020C94C4020C94C4020C94C402D8
:100090000C94C4020C94C4020C94C4020C94C402C8
:1000A0000C94C4020C94C4020C94C4024A034D0381
:1000B00050035303560359035C035C075C0788072E
:1000C0008807F60714080309030919088F08A00810
:1000D000A0086716D9166F1639163D167316401606
:1000E000761681164B16CF164F168516531689169F
:1000F000B31657168D16BD165D1693169D1644162B
:100100007A1647167D1662169816A916C916CB16CA
:1001100035166B16E216AD17B317A117A717B91747
:10012000BF17C5177A20A1209921A1209921ED2080
:1001300010219921672176212E002E004C002A00E3
:10014000E100354100001E001E00140004001D21C6
:1001500034004D001F001F001A0016001B00E104B0
:100160002A002000200008000700060050002C0094
:10017000210021001500090019004F004A0022004B
:10018000220017000A0005000000652450005000FE
:1001900061520000002F0000E3004F004F00615249
:1001A000000000270000E200230023001C000B00D9
:1001B0001100000029212400240018000D00100067
:1001C00052004B00250025000C000E0036005100A7
:1001D00028002600260012000F0037002F002B00F9
:1001E0002700270013003342382130004E002D0035
:1001F0002D0031003428E500C1520000407E407ED1
:10020000010001000100037C00003A003A001E02D8
:1002100020022202010001003B003B001F022102DC
:100220002302010027783C003C002F0226022F0009
:10023000010028783D003D00300227023000010017
:1002400001003E003E0031023500350200002178F9
:100250000100010001000000010000000100010098
:100260000100010000000100000020783F003F0075
:1002700052005100240200002B784000400024006E
:1002800021001E0001000100410041002500220064
:100290001F00370023784200420026002300200080
:1002A000270024784300430025022E0231002E004F
:1002B000010044004400450001000100010000006D
:1002C0000100010001000100010001000000010027
:1002D0000100010001000100010001000100010016
:1002E0000100CF0001000100010001000100CD006C
:1002F000CE000100D1000100010001000100D0008A
:100300000100D20001000100010001000100010014
:1003100000000100010001000100000001000000D8
:1003200001000100010001000000010000000100C7
:1003300001000100010001000100000001000100B6
:100340000100010001000100A900010001000100FD
:1003500001000100AC00AA00B6000100010001008C
:100360000100AB00A8000100010001000100010034
:10037000010001000100010001000100AE000100C8
:1003800001000000100366006C006100740064004E
:100390006F007800000022035000680069006C00C4
:1003A00069007000700065002000440061006F006B
:1003B000750061006400690000000403090409027B
:1003C0005400030100A0FA09040000010301010028
:1003D00009211101000122400007058103080001E5
:1003E0000904010001030102000921110100012299
:1003F0004700070582030800010904020001030009
:100400000000092111010001226D0007058303206E
:1004100000011201000200000008EDFE9019000129
:100420000102000105010980A101850319012AB714
:1004300000150126B700950175108100C0050C0953
:1004400001A101850419012AA002150126A0029527
:100450000175108100C005010906A1018506050787
:1004600019E029E7150025019508750181020507A6
:10047000190029EF1500250195F075018102050885
:1004800019012905950575019102950175039101E1
:10049000C005010902A1010901A1000509190129ED
:1004A000081500250195087501810205010930092B
:1004B000311581257F95027508810609381581253A
:1004C0007F950175088106050C0A38021581257F84
:1004D000950175088106C0C005010906A10105073F
:1004E00019E029E71500250195087501810295019C
:1004F000750881010507190029FF150026FF0095E1
:1005000006750881000508190129059505750191F1
:1005100002950175039101C011241FBECFEFDAE0EF
:10052000DEBFCDBF04B603FE18C08091D902909102
:10053000DA02A091DB02B091DC028730904BA74039
:10054000B04B59F41092D9021092DA021092DB02E9
:100550001092DC02E0E0F8E3099511E0A0E0B1E0E0
:10056000ECE0F5E402C005900D92A639B107D9F789
:1005700022E0A6E9B1E001C01D92A93DB207E1F772
:100580000E9479130C9484220C94000026982E9AD1
:1005900022982A9A23982B9A2198299A87988F9A99
:1005A00086988E9A85988D9A089525982D982498E6
:1005B0002C986E98769857985F983E9846988498AD
:1005C0008C9854985C980895CF93E82F873008F062
:1005D00057C08091000190910101892B09F06EC0F4
:1005E000CE2F64E670E080E40E94DE179093010154
:1005F00080930001892B09F040C064E670E082E13D
:100600000E9451189093010180930001892BA9F554
:10061000C11104C064E670E08FED1EC0C13079F4F2
:1006200064E670E08FEF0E9451189093010180936F
:100630000001892B11F564E670E08EEF18C026E00A
:1006400030E02C1B310981E090E001C0880F2A9531
:10065000EAF764E670E080950E94511890930101DA
:1006600080930001892B49F464E670E08FEF0E94CB
:10067000511890930101809300010E94A4181EC09C
:1006800090E0FC013797E730F105C0F4EA5AFF4FDC
:100690000C94EF21259A2D9811C0249A2C980EC005
:1006A0006E9A76980BC0579A5F9808C03E9A469803
:1006B00005C0849A8C9802C0549A5C98CF91089592
:1006C000CF93873008F047C08091000190910101DD
:1006D000892B09F05BC064E670E080E40E94DE17BD
:1006E0009093010180930001892B11F0C0E02FC08D
:1006F00064E670E083E10E945118909301018093B9
:1007000000010E94A4188091000190910101892BA1
:1007100069F764E670E081E40E94DE1790930101BE
:1007200080930001892B11F784E690E00E948018E5
:1007300097FF05C09093010180930001D7CF9927BF
:1007400095958795C82F10920101109200010E9483
:10075000A4188C2F19C023B193B183B143B13FB119
:100760002074329536953770322B9470990F990F0B
:10077000990F292F232B8870880F982F922B842F65
:100780008270880F880F892B809501C080E0CF91FF
:1007900008950E943D0490E0909301018093000130
:1007A000539A529A209A0E94D5020E94C6020E9431
:1007B000B4040895EF92FF920F931F93CF93DF93AA
:1007C0008C018091000190910101892B91F0809121
:1007D00098018F5F8093980181110BC00E943D04A6
:1007E00090E09093010180930001892B11F40E9405
:1007F000B404E80110E0F12C87E0E82EE10E812F2F
:100800000E94E4028E2D0E94E402812F0E94600368
:100810008F779881891719F0888301E001C000E083
:100820008E2D0E9460038F779F81891719F08F8327
:1008300081E001C080E0082BF02A0E94D5021F5FF2
:1008400021961730C9F68F2DCDB7DEB7E6E00C94B0
:100850001D220E943D0490E09093010180930001CD
:100860000E94D5020E94C602EAEBF2E0119282E0F9
:10087000E83CF807D9F70895089580E290E0909356
:100880000101809300018091990181110EC00E94A5
:10089000D81781E0809399012FEF83ED90E32150E9
:1008A00080409040E1F700C0000064E670E080E422
:1008B0000E94DE179093010180930001892B09F0BB
:1008C0004EC064E670E080E00E94511890930101F0
:1008D00080930001892B09F042C064E670E080E05B
:1008E0000E9451189093010180930001892BB9F562
:1008F00064E670E08EEF0E9451189093010180939E
:100900000001892B61F50E94A41864E670E080E480
:100910000E94DE179093010180930001892BF9F466
:1009200064E670E08CE00E9451189093010180937E
:100930000001892BA1F464E670E080E00E94511868
:100940009093010180930001892B49F464E670E0E3
:100950008EEF0E94511890930101809300010E9434
:10096000A4188091000108955B9A2FEF80E792E030
:10097000215080409040E1F700C000005A9A2FEFCC
:1009800080E792E0215080409040E1F700C00000F5
:10099000289A2FEF80E792E0215080409040E1F7C5
:1009A00000C000005B982FEF80E792E0215080406C
:1009B0009040E1F700C000005A982FEF80E792E0E6
:1009C000215080409040E1F700C000002898089531
:1009D0008330B0F46E30A0F4473090F492E6899FF3
:1009E000F001112487E0689FE00DF11D1124E40F50
:1009F000F11DEE0FFF1FE85CFE4F85919491089565
:100A000081E090E008950E94E804089581E008954F
:100A100081E008950E940805089508950E940D053B
:100A20000895A5E0B0E0E7E1F5E00C9404224983E5
:100A30005A8330919F0189819A81311114C06623B4
:100A400059F0222349F00E94E10A182F682F89816A
:100A50009A810E94BD0A03C00E94CF0A182F6981A3
:100A60007A81812F04C00E94E10A69817A810E9403
:100A7000E7112596E3E00C942022FC01262F40810B
:100A800051816281738184810E941105089581E002
:100A90000895CF93DF93EC0160E00E943D05BE0115
:100AA0000E940E05DF91CF91089508950E94860956
:100AB0000E9455052FEF84E39CE021508040904038
:100AC000E1F700C0000008950E9456050E94F31A45
:100AD00008950E9456050E94171B08950F931F93B7
:100AE000CF93DF938C0161E00E943D05EC01B801DA
:100AF0000E940A05882309F442C0B801CE010E9471
:100B000095178823E1F1B801CE010E9411168823C0
:100B1000B1F1B801CE010E94FB16882381F1F801E2
:100B20008281882341F1C3308CE7D807D1F040F4AB
:100B3000C115FCE7DF0791F0C130DC47A1F01BC015
:100B4000CB35ECE7DE07A9F0CC35FCE7DF0771F029
:100B5000CA35DC4781F40E944E0F0DC00E94640527
:100B60000EC00E94560F0E94690509C00E94440FE2
:100B700002C00E94520FC8010E94060501C080E019
:100B8000DF91CF911F910F9108950E94201A0E942A
:100B9000EC0508950E94F0050E94261A0895089514
:100BA00081E008950895CF93DF93D82F0E94D00558
:100BB000C82F882319F08D2F0E94D2058C2FDF912A
:100BC000CF9108950895CF93C82F0E94CF058C2F01
:100BD0000E94D305CF91089580E00E94E305089517
:100BE0000E94B2180E94E3050895CF930E94B218A4
:100BF000C82F80919A01C81779F0C0939A010E947A
:100C0000B21A60939B0170939C0180939D01909315
:100C10009E018C2F0E94E305CF910895ABE0B0E0D8
:100C2000E4E1F6E00C9405224F83588769877A87C0
:100C30008B8761110E948C0E9E012F5F3F4F86E0D3
:100C4000F90111928A95E9F785E0FE013796D901FD
:100C500001900D928A95E1F789819A814C815D819D
:100C6000452B31F09F3F31F491E08F3F19F403C0E1
:100C700091E001C090E090FF09C049815A816B81E9
:100C80007C818D819E810E94B80D05C0C9010E94A2
:100C900047058111F2CF2B96E2E00C942122FC0152
:100CA000808191810E94130B0895662319F00E94A0
:100CB000FE1302C00E9459140E94D0140895CF93CD
:100CC000882309F450C0C82F8CEF8C0F813AD0F4E0
:100CD0006C2F80910201909103010E944419882396
:100CE00049F06C2F80910201909103010E94D2196A
:100CF0000E94B00E6C2F80910201909103010E941E
:100D0000C4190CC080E28C0F883058F4C77081E0A1
:100D100001C0880FCA95EAF70E946F0E0E94B00EBC
:100D200022C0EBE5EC0FE33040F4F0E0E55BFE4F72
:100D3000808190E00E94E41816C0E8E5EC0FEB31EA
:100D400050F4F0E0EE0FFF1FEB5EFE4F80819181CB
:100D50000E94091908C083E38C0F833120F461E0FD
:100D60008C2F0E945506CF9108958823A9F19CEFFE
:100D7000980F913A40F4682F8091020190910301FD
:100D80000E94D2190DC090E2980F983060F48770DD
:100D900091E001C0990F8A95EAF7892F0E94750E9C
:100DA0000E94B00E08959BE5980F933028F480E0E0
:100DB00090E00E94E418089598E5980F9B3128F47C
:100DC00080E090E00E940919089593E3980F933111
:100DD00018F460E00E94550608951F93CF93DF93A7
:100DE000182FEB010E945F06209741F08FE99FE0EA
:100DF0000197F1F700C000002197F6CF812F0E94E4
:100E0000B506DF91CF911F910895893319F060E005
:100E100070E002C060E570E00E94ED06089588234E
:100E200021F00E946F0E0E94B00E0895882321F0D9
:100E30000E94750E0E94B00E0895A0E0B0E0E3E2BB
:100E4000F7E00C94FF217C01162FC72FFC01D28103
:100E5000058102950F700E94650E8823E9F0DD235D
:100E6000D9F08C2F807F803451F080E2810F883060
:100E700098F0011104C08C2F807E803269F080913F
:100E8000AB0282FF09C082E00E94120F0E94650E31
:100E900091E0D82ED92601C0D12CCC2EC2948FE05F
:100EA000C8228C2D90E08C30910508F0ACC1FC017B
:100EB000E35AFF4F0C94EF218C2F807FCF70882353
:100EC00011F0C295C07FDD2399F0CC2309F487C1CE
:100ED00080E2810F883010F0111104C08C2F0E9425
:100EE0006F0E03C08C2F0E947F0E0E94B00E77C140
:100EF000812F0E94B506CC2309F485C180E2810FC1
:100F0000883038F1112329F18C2F0E94850E24C0DE
:100F10008C2F807FCF70803211F0C295C07F11235B
:100F200019F01130D1F143C08091AB0282FD17C09E
:100F3000DD2349F0CC2329F08C2F0E946F0E0E94F4
:100F4000B00E80E04DC180E00E94B506CC2309F4CC
:100F50005AC18C2F0E94750E0E94B00E54C1DD2321
:100F600071F0002341F0013031F40E948F0E8C2B80
:100F70000E94990E48C10E948F0E8C2B23C0011134
:100F800003C00E94A60E2EC0013009F43CC18C2F74
:100F90000E9416070E94A60E36C1DD2321F00630FE
:100FA00008F031C10EC0053008F02DC11BC0DD2393
:100FB00061F0002331F0F701858180FF10C18F704F
:100FC00085838C2F0E940F071EC1002359F019330F
:100FD00009F016C1FFEF27EE83E0F150204080407A
:100FE000E1F70CC18C2F0E9416070DC18C2F86953E
:100FF0008695837019F0813061F005C1DD2321F001
:10100000812F9C2F937002C080E090E00E94E41832
:1010100002C1DD2321F0812F9C2F937002C080E05C
:1010200090E00E940919F7C06D2F812F0E9455068C
:10103000F2C08C2F8370B1F5D111E9C0412F4295D8
:1010400046954770440F440F812F8F7090E09C01AC
:10105000042E02C0220F331F0A94E2F714FF0AC0C5
:101060008FE090E002C0880F991F4A95E2F78095C3
:10107000909502C080E090E0C695C695C370822B23
:10108000932BC23049F058F4C13019F00E94F00996
:10109000BEC00E94E709BBC00E94F909B8C00E9407
:1010A000E409B5C0DD2319F08C2F817001C086954D
:1010B000882309F4ACC0412F429546954770440FF0
:1010C000440F812F8F7090E09C01042E02C0220FEC
:1010D000331F0A94E2F714FF0AC08FE090E002C0C9
:1010E000880F991F4A95E2F78095909502C080E09D
:1010F00090E0C695C695C370822B932BC23049F001
:1011000058F4C13019F00E94580A81C00E944F0A59
:101110007EC00E94610A7BC00E94050A78C0CF7021
:10112000DD2339F08C2F0E941D0A812F0E940F07AA
:101130006EC0812F0E9416078C2F0E942D0A67C057
:10114000123F21F128F4103F41F0113FC1F043C09C
:10115000133F19F1143F79F03EC0DD2341F0053013
:1011600008F051C08C2F8F710E943F0A4CC006308E
:1011700008F049C0F7CF8091AB0282FD18C0DD2393
:1011800039F08C2F8F710E941D0A3DC0DD23C9F3F9
:101190008C2F8F710E942D0A36C0DD2329F08C2FF1
:1011A0008F710E94110A2FC00E940C0A2CC0DD23EF
:1011B00049F0CF718C2F0E941D0A63E08C2F0E9492
:1011C000F40E21C081E00E94120F0230E0F082E0B4
:1011D0000E94120F18C0DD2331F0002391F2812FFD
:1011E0000E945F0610C0002399F2193349F49FEF63
:1011F000E7EEF3E09150E040F040E1F700C000007E
:10120000812F0E94B50688EF8C0D843020F40E9457
:10121000B2180E94E305DD2089F00E94610E80FD76
:101220000DC0F70112820E945B0E0E941D0AC701C9
:101230000E943B090E945B0E0E942D0ACDB7DEB7CB
:10124000E8E00C941B220F931F93CF93DF93EC01E4
:10125000688179818A810E941E0B8C010E946A0A32
:101260000E94D509B801CE010E941D07DF91CF91E0
:101270001F910F910895CF93DF93EC01988189819D
:101280002B813C81232B31F08F3F31F481E09F3F54
:1012900019F403C081E001C080E080FD1AC0CE01D6
:1012A0000E946E0581110FC00E94650E882389F08F
:1012B0008A81882371F08091AB0282FF0AC082E0AC
:1012C0000E94120F06C0CE010E942309CE010E9487
:1012D0004905DF91CF91089580E090E00E94E418E5
:1012E00080E090E00E9409190E948C0E0E94B00ECE
:1012F0000E94EF140E94D0140895809102019091F1
:1013000003010E94E0190E946C0908950E947C0E5E
:101310000E947D09089592959F70963079F010F49F
:10132000925001C09A50923068F4803F69F018F4EE
:10133000883E40F409C0843F29F406C0883E20F06E
:10134000813F11F080E0089581E00895FC019081D3
:10135000818123813481232B31F08F3F31F481E06F
:101360009F3F19F403C081E001C080E080FD07C009
:10137000808191810E94130B0E948B09089580E067
:101380000895A5E0B0E0E7ECF9E00C94052225967D
:10139000E2E00C942122A6E0B0E0E1EDF9E00C944B
:1013A00005222696E2E00C942122089508950E94D9
:1013B000D60908950E94D70908950E94DA099093EA
:1013C000D7018093D60108950E94DD0908952091E8
:1013D000D6013091D701822B932B0E94DD0908950D
:1013E0002091D6013091D701822393230E94DD09F9
:1013F00008952091D6013091D701822793270E942A
:10140000DD0908950E94D60908950E94020A90936A
:10141000D5018093D401089580E090E00E94050AF0
:10142000089521E030E0A90102C0440F551F8A95BC
:10143000E2F7CA010E94050A089521E030E002C0E7
:10144000220F331F8A95E2F78091D4019091D50144
:10145000822B932B0E94050A089521E030E002C000
:10146000220F331F8A95E2F7209530958091D401A1
:101470009091D501822393230E94050A089521E0CB
:1014800030E002C0220F331F8A95E2F78091D40129
:101490009091D501822793270E94050A08952091F3
:1014A000D4013091D501822B932B0E94050A089517
:1014B0002091D4013091D501822393230E94050A03
:1014C00008952091D4013091D501822793270E945D
:1014D000050A08950895962F9770A1E001C0AA0FFC
:1014E0009A95EAF793E0769567959A95E1F7660FF6
:1014F000771F660F771FFA01E60FF71F40E050E0F5
:10150000682F70E090819B01042E02C036952795CC
:101510000A94E2F72170219529272A23292721936C
:101520004F5F5F4F4430510569F70895FB01782FF5
:10153000777023E0969587952A95E1F7880F991F94
:10154000880F991FE80FF91F40E050E080E02191DB
:1015500030E0072E02C0369527950A94E2F72170F5
:101560003327042E01C0220F0A94EAF7822B4F5F23
:101570005F4F4430510559F70895282F9E3070F47D
:10158000873060F4862F622F70E027E0929F600D15
:10159000711D112440EA51E00E946B0A08959E30AB
:1015A00070F4873060F4292F90E060EA71E037E052
:1015B000239F800D911D11240E94960A089580E0BA
:1015C0000895A0E0B0E0E7EEFAE00C94FE217C0183
:1015D0000091D4011091D5018091D6019091D7014D
:1015E000082B192BCFE0D0E0CC24C394D12CC6011A
:1015F0000C2E02C0880F991F0A94E2F780239123D2
:10160000892B21F4219798F7B12C07C0BC2EB70184
:101610008C2F0E94F3110197A9F38B2DCDB7DEB764
:10162000E9E00C941A22CF93DF93EC010E94E10AC7
:10163000BE010E94F311DF91CF9108951F93CF93C4
:10164000DF93EB0190919F01992321F0CB010E9440
:10165000130B13C0882349F0CB010E94E10A182F15
:10166000682FCE010E94BD0A04C0CB010E94CF0AA0
:10167000182FBE01812F0E94F311DF91CF911F918E
:1016800008951F93CF93DF93C091D80116E0809106
:10169000D901C81799F0D0E01C9FF0011D9FF00DF3
:1016A0001124E652FE4F4081518162817381848111
:1016B00095810E94CB092196C770E9CFDF91CF9128
:1016C0001F91089540910A0250910B0260910C0203
:1016D00070910D0280910E0290910F020E94CB0931
:1016E00008952091D8019091D90156E02917A9F0C9
:1016F00030E0529FF001539FF00D1124E652FE4F4F
:101700007181761306C07081781303C072817413DF
:1017100006C02F5F3F4F2770E9CF80E0089581E03A
:1017200008950F931F93CF93DF9380910F028295BB
:101730008F7009F05AC080910C02882309F455C0BB
:101740008091D8011091D90160910A0270910B0229
:10175000C0910D02D0910E0291E06F3F09F090E030
:10176000292F06E0811709F440C0209721F07F3F20
:1017700021F030E003C031E001C0322F90E030FDB5
:1017800031C0089FF001099FF00D1124DF01A6521E
:10179000BE4F11963C911197371324C03C913613DC
:1017A00021C012963C91129731111CC013964D9195
:1017B0005C9114974C1B5D0B483C510598F480914B
:1017C0000F028F70806180930F02E152FE4F808183
:1017D0008F70806180838AE092E00E943B090E94C2
:1017E000410B03C001968770BDCFDF91CF911F9150
:1017F0000F910895A1E1B0E0E0E0FCE00C94FB2142
:101800008C0185E0F801DE011D9601900D928A950C
:10181000E1F7F801E28090910A0220910B024091D9
:101820000D0250910E024115510531F02F3F31F458
:1018300081E09F3F19F403C081E001C080E080FD9A
:1018400078C1F801C080D180838094808AE0A82E7E
:1018500082E0B82EF0900C02B401641B750BFF20DF
:1018600009F411C180910F02382F307F683C710557
:1018700008F0CBC031118AC0D21213C0C91211C0F6
:10188000FE2CE1100EC08F70806180930F020E94C9
:10189000620BC5010E943B0980910F02F80185830C
:1018A00062C18114910439F0FFEFDF1206C081E0BC
:1018B000CF1203C003C081E001C080E080FD03C0FF
:1018C00081E08E2502C080E090E080FF05C04E2DB3
:1018D0006D2D8C2D0E94710B8114910439F02FEF26
:1018E000D21206C081E0C21203C003C081E001C071
:1018F00080E080FD03C081E08E2502C080E090E0A2
:10190000682F6170B62E80FF37C04E2D6D2D8C2D47
:101910000E94710BF82E81112FC0CD86DE868D8539
:101920009E850E94130B292F22952F70243020F4BE
:101930009F70223028F009C02A50223088F017C04A
:10194000992351F0811108C00EC1992329F0F801A3
:101950009581907F09F407C1805E883040F403C10F
:10196000803F08F400C1815F833008F4FCC0C801E7
:101970000E943B09FB2CF7C0FE2CEE2009F4F3C0BB
:1019800080910F02816080930F0254C0D21206C072
:10199000C91204C0E11002C0F80199C0C8010E9438
:1019A000A609882361F1EE2051F120910F02822FC8
:1019B00082958F7090E0029774F080910A02909166
:1019C0000B0298878F8319869B868A862C87CE0187
:1019D00007960E943B0986E0F801AAE0B2E0019078
:1019E0000D928A95E1F70E94910B0E94620B0AC04A
:1019F000D21611F1C8010E94A60981112CC0C8019C
:101A00000E943B09FF24F394AEC03111F1CF782D31
:101A1000998A888AA6016E2D89890E94C1098AE067
:101A200092E00E943B0986E0F50111928A95E9F760
:101A30000E94620BF12C97C0C912DCCFE110DACF03
:101A4000F8018583C8010E943B0986E0F5011192E7
:101A50008A95E9F788C0EE2091F220910F02822F3B
:101A600082958F7090E002970CF4B5CF80910A02B6
:101A700090910B029A8389831B829D828C822E8394
:101A8000CE010196A6CF683C710508F044C0FE2C3B
:101A9000EE2009F4B4CFD21230C0C9122EC020916A
:101AA0000F0220FD21C0822F82958F70482F50E0B9
:101AB00041155105C9F0F80125834F30510541F01A
:101AC0008F5F982F9295907F822F8F70892B8583BF
:101AD000C8010E943B0986E0F801AAE0B2E001904B
:101AE0000D928A95E1F73DC086E0F801AAE0B2E0E8
:101AF00001900D928A95E1F736C0C8010E94A609AF
:101B0000811169CF80910F02816080930F02C8011B
:101B10000E943B0928C0782D998A888AA6016E2DDB
:101B200089890E94C10986E0F50111928A95E9F739
:101B300018C0EE2009F463CFC8010E94A609F82E50
:101B4000882309F45CCF86E0F801AAE0B2E00190B6
:101B50000D928A95E1F78AE092E00E944F060E947A
:101B6000910B0E94620B8F2D6196ECE00C94172272
:101B7000ACE0B0E0EEEBFDE00C9404224F8358871C
:101B800069877A878B879C87CE0107960E94FA0B1C
:101B90008823D1F09F8188852A853B85232B31F0CE
:101BA0008F3F31F481E09F3F19F403C081E001C011
:101BB00080E080FD47C04F81588569857A858B8597
:101BC0009C850E94CB093EC086E0FE013796DE016F
:101BD000119601900D928A95E1F7FF81E8856A855B
:101BE0007B856115710531F0EF3F31F481E0FF3FF6
:101BF00019F403C081E001C080E080FD23C0209182
:101C0000D90130E0C9010196877099274091D80128
:101C100050E084179507F1F1F983EA837D836C83A3
:101C200096E0929FD001939FB00D1124A652BE4F13
:101C3000FE01319601900D929A95E1F78093D901BA
:101C40000E94410B16E08091D8019091D90189172B
:101C500071F1189FC001112486529E4F0E94FA0B09
:101C6000882329F1E091D8011E9FF0011124E6524A
:101C7000FE4F4081518162817381848195810E94F0
:101C8000CB098091D80190E00196877099278093C5
:101C9000D801D9CF0E9486091092D9011092D8019B
:101CA000EAE0F2E086E0DF011D928A95E9F72C96E2
:101CB000E3E00C94202280913002859585958595EE
:101CC0000895809130028770089590913002977046
:101CD00081E009F480E00895809153020895909185
:101CE0005302892B8093530208958095909153025B
:101CF000892380935302089510925302089590917E
:101D00005202892B8093520208958095909152023D
:101D1000892380935202089510925202089580916F
:101D20003102089508950E94920E08950E94930E24
:101D300008959091AB0292FF08C0909131029817DC
:101D400021F0809331020E94960E08958091310215
:101D5000882329F01092310280E00E94960E0895A7
:101D6000CF93DF93E0910201F09103018091530240
:101D70008083E0910201F0910301908180915202F1
:101D8000892B808380913102882381F0E0910201C8
:101D9000F09103019081892B8083809102019091C1
:101DA00003010E942E1981110E94A60EC09102010A
:101DB000D091030140E250E060E172E0CE010E9468
:101DC0002C22892B59F080E2FE01A0E1B2E00190C3
:101DD0000D928A95E1F7CE010E94BF18DF91CF9155
:101DE00008950E94920E08959091AB0292FF11C047
:101DF00098E0899F90011124262B209330020E94A5
:101E00001D0A809130028595859585950E94F10E79
:101E100008950E941D0A08951092300280E00E94E9
:101E2000F10E089520913002809582238093300234
:101E3000982F977099F430E0482F082E000C550B1E
:101E40002417350759F09091AB0292FF07C0859592
:101E5000859585950E942D0A0E940C0F08959091FA
:101E6000AB0292FB222720F9281769F080FB92F938
:101E70009093AB028091AA029091AB020E94770FDF
:101E800082E00E94120F08958091AB0282FB8827A6
:101E900080F991E089270E942F0F089581E00E9428
:101EA0002F0F089580E00E942F0F08956FEF7FEFAE
:101EB00080E090E00E946E22089580E090E00E9411
:101EC0004A2221E0873E9E4F09F020E0822F0895AC
:101ED00082E090E00E944222089583E090E00E9418
:101EE0004222089584E090E00E944A220895BC01B5
:101EF00084E090E00E946E220895AB01BC018FE067
:101F000090E00E9462220895AB01BC0183E190E061
:101F10000E946222089560E070E0CB010E94840F6D
:101F2000089560E070E0CB010E947D0F0E948B0F4E
:101F3000089567EE7EEF80E090E00E946E2260E000
:101F400082E090E00E94502260E083E090E00E94F6
:101F500050221092D7011092D60160E074E184E023
:101F600090E00E946E2260E086E090E00E945022A5
:101F70006FEF87E090E00E94502240E050E0BA010D
:101F800088E090E00E94622260E08DE090E00E9494
:101F9000502240E050E0BA0188E190E00E946222C5
:101FA00060E087E190E00E94502240E050E0BA01FA
:101FB0008CE190E00E94622260E070E080E290E0BC
:101FC0000E946E2240E050E0BA0188E190E00E9459
:101FD00062220E94910F08950E94990F0895682F20
:101FE0008EE090E00E9450220895A5E0B0E0EBEF73
:101FF000FFE00C9403220E94A61A8C0180915402E7
:102000009091550208171907A1F08FEF89838A83F1
:102010001B820E94A61A8160782F9D838C83498140
:102020005A816B818D810E940E0610935502009398
:1020300054022596E4E00C941F220E94B21A609389
:1020400068027093690280936A0290936B026093B6
:10205000640270936502809366029093670208950C
:1020600081E0089581E008950E9432100895089556
:102070000E94371008950E943C0408950E94371072
:1020800008950E943E1008950E943710089587ED2C
:1020900092E10E94A8180E9444100E9441100895E5
:1020A0000E9438100E94371008950E94DA120E9490
:1020B000E20508950E949D1A0E940C130E9455107B
:1020C0000E943B100895A5E0B0E0E9E6F0E10C9431
:1020D000FD210E943010811103C00E94F50F52C0F3
:1020E0000E941E1386E5E82E82E0F82E670100E0CC
:1020F000F60111916F01802F0E94F81281270F5F66
:102100000E3019F08823A1F302C0882331F38091A7
:102110006C0281FD0E94FE120E943410A82E10E075
:10212000812F0E94F812B82EF701C080C82611F145
:1021300000E0DD24D3948C2D8D21B1F0AA20A1F0F4
:1021400009831A8391E08B2D8D2109F490E09B8304
:102150000E94A61A8160782F9D838C8349815A81C1
:102160006B818D810E940E060F5FDD0C073019F721
:10217000F701B0821F5FFFEFEF1AFF0A1E3081F6F2
:102180000E941D100E9411150E94F5052596EAE097
:102190000C9419221F93CF93DF930E94F811EC0146
:1021A000C11580E5D807E8F5C11590E4D90708F016
:1021B000A8C0C03ED10530F5CD3CD10508F094C093
:1021C000C83AD10578F4C53AD10508F083C0C130CA
:1021D000D10509F47CC008F4F2C0C430D10508F080
:1021E000F1C0EDC0C33CD10508F0E9C0C85AD0E049
:1021F000CC0FDD1FC25BDE4F0990D881C02DCE0110
:102200009464E1C0C11580E2D80708F0CBC0C115C5
:1022100091E0D90708F06BC0C83ED10508F4D2C0E0
:10222000CEC0C03682E5D80728F5C03492E5D9077C
:1022300008F079C0C03282E5D80708F06CC0C1153B
:1022400092E5D90708F481C04C2F4695469580E267
:10225000489FA0011124C37021E030E0C90102C0F1
:10226000880F991FCA95E2F7EA01C82BD92BCE0136
:102270009D68A9C0C03A82E5D807B8F48C2F8F7149
:10228000C03892E5D90708F07BC08695869590E224
:10229000899F90011124C37081E090E002C0880FF3
:1022A000991FCA95E2F79A6868C0C03C82E5D807D2
:1022B00008F46DC0C03E92E5D90708F080C0CF7128
:1022C000DD27DC2FCC27CE01806F906A7CC081E0B7
:1022D00090E079C0C55AD0E0CC57DE4F8881C82F36
:1022E000D0E0CE0190646FC0CE0190656CC08D2FA0
:1022F0000E949412182FCE0199270E94F8111F7185
:102300005CC0CE0199270E94F811CC27DF70D06AFB
:102310008C2B9D2B58C0CF71D0E0DC2FCC27CE0169
:10232000816F906A50C08C2F8F718695869590E250
:10233000899F90011124C37081E090E002C0880F52
:10234000991FCA95E2F79C6818C08C2F8F710E9464
:10235000941295E0D695C7959A95E1F7CF70D0E0A5
:10236000DC2FCC27282F30E084FF05C084E0220F2B
:10237000331F8A95E1F7D069CE01822B932B23C0BE
:1023800090E0D82FCC27CE01846F906A1CC08C2F90
:102390008F710E9494128F7190E0D82FCC27CE01BC
:1023A000906211C08D2F8F710E949412182FCE0150
:1023B00099270E94F8111F719062912B04C080E050
:1023C00090E001C0CE01DF91CF911F9108957E3042
:1023D00038F4673028F4462F672F0E9403050895CC
:1023E00080E090E008950E94E7110E94CA100895CD
:1023F0008238910569F1B0F48133910509F475C013
:1024000048F48932910509F467C08A32910509F4CC
:1024100071C008958533910509F459C08933910538
:10242000B9F00895833E910589F138F4803E910515
:10243000D1F0823E910529F10895863E9105C9F1BA
:10244000873E9105D9F1843E910509F06CC027C003
:102450002091AA0220FD57C021FD55C02091AB025A
:1024600023FD5BC008958091AA0280FD48C0809141
:10247000AB0280FF48C08091AA0284FD46C083EE73
:1024800051C08091AA0282FF3CC0F5CF8091AA0280
:1024900082FD37C08091AB0280FD35C0ECCF8091CA
:1024A000AB0281FF36C08091AA0284FD2EC087EE68
:1024B00039C08091AA0283FF2AC0F5CF8091AA0279
:1024C00083FD25C08091AB0281FD23C0ECCF8091BC
:1024D000AA0285FD22C01FC08091AA0285FD1BC0F3
:1024E0008091AB0283FF19C00AC08091AA0286FDC9
:1024F00016C017C08091AA0286FD13C010C089E3E0
:1025000011C082EE0FC080EE0DC080E00BC086EEE1
:1025100009C084EE07C085E305C089E203C08AE2F2
:1025200001C081E390E008959091AA0292FF0DC04E
:10253000282F2871283019F4877F846006C0282F3F
:102540002471243011F48B7F886093FF0DC0282FF5
:102550002871283119F4877E846106C0282F2471E0
:10256000243111F48B7E88612091AB0220FF0DC0D5
:10257000382F3871383019F4877F816006C0382FC2
:102580003171313011F48E7F886021FF0DC0282F0A
:102590002871283119F4877E816106C0282F2171A6
:1025A000213111F48E7E886194FD877E089580E04C
:1025B000089508950E945D0F811102C00E94EC0FE2
:1025C0000E94680F80936C020E94720F9093AB027E
:1025D0008093AA020E94D9120E946D0F90E00E947F
:1025E000E4098091D4019091D5010E94020A0895D6
:1025F000E82FF0E0E654FD4F808108950895089596
:102600000E94FF1208950E94001308950E94FF1275
:1026100008950E94061308950E94C903ECEAF2E0AF
:10262000AAEBB2E011921D9282E0EA3BF807D1F7E3
:102630008EE00E9431130E9409130895CF938CEA13
:1026400092E00E94DA03282F4EE06AEB72E08CEAF7
:1026500092E00E943213C82F0E9403138C2FCF9157
:1026600008950895EF92FF920F931F93CF93DF93F6
:102670007C018B01C42F222349F081E080936F02FB
:102680000E94A61A90936E0280936D0280916F0251
:10269000811102C080E01AC080916D0290916E029B
:1026A0000E94BE1A0597B0F3D0E0AE01B701C80191
:1026B0000E942C22892B39F0AE01B701C8010E947B
:1026C000392281E001C080E010926F02CDB7DEB701
:1026D000E6E00C941D220E94981C0E945A100E9451
:1026E000A51C08950E94AA1C0E9463100E94C41C8D
:1026F00008950E943D1A0E947E1C0E9447100E946D
:102700006B130E9472130E945010FBCF80917602CF
:1027100080FF06C06091090170E0660F771F26C038
:1027200081FF04C06091090184E005C082FF07C0F9
:102730006091090188E0689FB001112417C0909151
:1027400075029923D1F060910801961788F72091BE
:10275000090188E0289F90011124929FA001939F76
:10276000500D112470E0CA010E94DB216038710510
:1027700040F46115710519F406C068E070E0862F19
:1027800008958FE7089581E008958091760280FF93
:1027900008C06091050170E075956795759567951E
:1027A00021C081FF06C06091050170E075956795B5
:1027B00019C082FF04C06091050170E010C09091C3
:1027C0007402992399F0609104019617A0F7809103
:1027D0000501899FC001112470E00E94DB2160384F
:1027E000710540F46115710519F406C061E070E0EF
:1027F000862F08958FE7089581E008958D3C21F498
:102800000E948613819504C08E3C29F40E94861391
:102810008093790208958F3C21F40E94861381955C
:1028200004C0803D29F40E948613809378020895A5
:10283000893D19F40E94C51305C08A3D31F40E94F8
:10284000C513819580937A0208958B3D21F40E94EF
:10285000C513819504C08C3D29F40E94C513809353
:102860007B0208959FE2980F983078F421E030E0E1
:10287000A90102C0440F551F9A95E2F7CA01909131
:102880007702892B8093770208958D3D21F4809102
:10289000760281600BC08E3D21F4809176028260C9
:1028A00005C08F3D29F48091760284608093760282
:1028B00008958D3C39F49091790297FF35C01092BC
:1028C000790259C08E3C29F4909179021916BCF313
:1028D0002BC0909178028F3C29F497FF25C010926D
:1028E000780249C0803D19F41916CCF31DC09091AF
:1028F0007A02893D29F41916BCF410927A023BC081
:102900008A3D19F497FF10C0F8CF8B3D39F49091B0
:102910007B0297FF09C010927B022DC08C3D21F4F1
:1029200090917B021916BCF39FE2980F983080F4C7
:1029300021E030E0A90102C0440F551F9A95E2F74B
:10294000CA0180959091770289238093770213C002
:102950008D3D21F4809176028E7F0BC08E3D21F457
:10296000809176028D7F05C08F3D29F4809176029B
:102970008B7F8093760280917802811106C08091CE
:102980007902811102C01092750280917A02811140
:1029900006C080917B02811102C0109274020895DA
:1029A0000E94A61A20917802211104C02091790278
:1029B000222321F0909373028093720220917A0275
:1029C000211104C020917B02222321F090937102F7
:1029D0008093700287E792E00E94D9180895E7E794
:1029E000F2E085E0DF011D928A95E9F71092750209
:1029F00010927402109276020895FC018181811177
:102A00000DC0828181110AC08381811107C091E0CC
:102A10008481811101C090E0892F01C081E0817023
:102A20000895A5E0B0E0E7E1F5E10C94042285E02B
:102A3000E7E7F2E0DE01119601900D928A95E1F749
:102A4000109278021092790210927A0210927B0210
:102A50008A81811104C08B81882309F45FC0809131
:102A60007202909173020E94BE1AAC01909175029D
:102A7000992339F020910A0130E02417350758F0E6
:102A80004DC020910B018AE0289F9001112424174A
:102A9000350718F043C09F3F19F09F5F9093750270
:102AA0001A81112361F00E948613111614F09FEF12
:102AB00001C091E0989F902D1124909378021B8182
:102AC000112361F00E948613111614F09FEF01C0CC
:102AD00091E0989F902D1124909379023091780283
:102AE0003323E1F0209179022223C1F045EB340336
:102AF000C0011124992319F09093780203C081E05A
:102B00008093780235EB2303C0011124992319F037
:102B10009093790203C081E0809379028C818111C6
:102B200004C08D81882309F45FC080917002909168
:102B300071020E94BE1AAC0190917402992339F07F
:102B40002091060130E02417350758F04DC0209140
:102B500007018AE0289F900111242417350718F0F7
:102B600043C09F3F19F09F5F909374021C81112313
:102B700061F00E94C513111614F09FEF01C091E09F
:102B8000989F902D112490937A021D81112361F05A
:102B90000E94C513111614F09FEF01C091E0989F99
:102BA000902D112490937B0230917A023323E1F02F
:102BB00020917B022223C1F045EB3403C001112494
:102BC000992319F090937A0203C081E080937A02EE
:102BD00035EB2303C0011124992319F090937B0254
:102BE00003C081E080937B02BE016F5F7F4F87E768
:102BF00092E00E94F219811105C087E792E00E94DD
:102C0000FD1481110E94D01485E0FE013196A7E7E2
:102C1000B2E001900D928A95E1F72596E3E00C94DD
:102C20002022CF93DF93FC01DB0112968C91882345
:102C300009F4DDC09F0130572332310508F0D8C0B8
:102C4000EF010E94720F9093AB028093AA02FE01E3
:102C5000E150F047E232F10520F4E759FF4F0C94C0
:102C6000EF218091AA028160AAC08091AB028860A6
:102C7000B2C08091AA028260A2C08091AA0220C044
:102C80008091AA0288609BC08091AB021EC0809197
:102C9000AB028260A0C08091AA02806190C0809146
:102CA000AA0280628CC08091AA02806488C00E94BF
:102CB00086098091AA02806882C08091AA028860F9
:102CC00084607DC08091AB028260816084C080910D
:102CD000AA028E7F74C08091AB02877F7CC08091F6
:102CE000AA028D7F6CC08091AA0220C08091AA02A6
:102CF000877F65C08091AB021EC08091AB028D7F43
:102D00006AC08091AA028F7E5AC08091AA028F7DEC
:102D100056C08091AA028F7B52C00E948609809182
:102D2000AA028F774CC08091AA02877F8B7F47C011
:102D30008091AB028D7F8E7F4EC08091AA0282FB74
:102D4000222720F991E0922790FB82F990FB83F9EA
:102D500036C08091AB02982F909591708E7F892B11
:102D600090FB81F938C08091AA0286FB222720F9C6
:102D700091E0922790FB86F922C00E9486098091FB
:102D8000AA0287FB222720F991E0922790FB87F97E
:102D900016C081E001C080E00E94EF0F1EC080914C
:102DA000AA0284FB222720F991E0922790FB84F964
:102DB00006C08091AA02982F909590FB80F980938D
:102DC000AA020BC08091AB0283FB222720F991E07D
:102DD000922790FB83F98093AB028091AA02909195
:102DE000AB020E94770F0E94860980E001C081E05B
:102DF000DF91CF910895CF93DF9386319C4741F5C2
:102E0000EB010E946C0E982F8A8120910201309173
:102E10000301882379F09A7A81E009F480E08093B5
:102E20007C02911102C069E201C065E3C9010E9400
:102E3000C4190AC080917C02811102C069E201C0FC
:102E400065E3C9010E94D2190E94B00E80E001C062
:102E500081E0DF91CF9108950F931F93CF93DF937C
:102E6000C42FD22FFC0182818823B1F040937F02CE
:102E70000E94A61A90937E0280937D0280E28C0FBE
:102E8000883008F04DC0C77081E001C0880FCA9536
:102E9000EAF70E940F0744C080917F02481330C0B8
:102EA00080917D0290917E020E94BE1A883C91051D
:102EB00038F510E21D0FCD17B9F080E28C0F883085
:102EC00040F4C77081E001C0880FCA95EAF70E94FC
:102ED0001607183010F581E09D2F977001C0880FFC
:102EE0009A95EAF70E940F07802F0E940507183075
:102EF000B8F4D77081E001C0880FDA95EAF70AC00C
:102F000080E28C0F883060F4C77081E001C0880FC8
:102F1000CA95EAF70E94160703C0802F0E94050792
:102F2000DF91CF911F910F9108950F93FC01E8510C
:102F3000FC47E730F10590F5CB01E557FF4F0C94C6
:102F4000EF2106E221EE41EE6AE17CE723C007E2D1
:102F500025EE45EE6BE17CE71DC006E221EE40EE7A
:102F600068E17CE717C007E225EE44EE69E17CE703
:102F700011C006E221EE42EE6CE17CE70BC007E2F5
:102F800025EE46EE6DE17CE705C008E221E045EE66
:102F90006EE17CE70E942C1780E008C0FB01828173
:102FA000882319F010927F0201C081E00F910895EB
:102FB0001092B9008CE08093B8000895A0E0B0E0D2
:102FC000E4EEF7E10C94FC21B82EEB010E94A61A66
:102FD0006C01C431D10558F0CF3F8FEFD80759F0BD
:102FE000CE0164E170E00E94C7217B0107C0EE249E
:102FF000E394F12C03C025E0E22EF12C84E8A82E06
:1030000094EA992E1092BC009092BC000E94A61ADD
:103010008C018091BC0087FD07C0C8010E94BE1AC8
:10302000E816F906B0F729C08091B900887F88308A
:1030300041F08091B900887F803119F00FEF1FEFC8
:103040001EC0B092BB00A092BC000E94A61A8C01C8
:103050008091BC0087FD07C0C8010E94BE1AE81617
:10306000F906B0F70AC08091B900887F883111F065
:10307000803421F700E010E00EC00EEF1FEFCF3FCD
:103080008FEFD80709F4BECFC6010E94BE1AC81739
:10309000D90708F0B7CFC801CDB7DEB7EBE00C9485
:1030A00018220F931F93CF93DF93EB018093BB0004
:1030B00084E88093BC000E94A61A8C018091BC0019
:1030C00087FD0DC0CF3F8FEFD807C1F3C8010E9425
:1030D000BE1AC817D90790F78EEF9FEF0CC020914A
:1030E000B900287F81E090E0283211F480E090E080
:1030F000919581959109DF91CF911F910F9108953D
:103100000F931F93CF93DF93EC0184E88093BC006F
:103110000E94A61A8C018091BC0087FD0DC0CF3F94
:103120008FEFD807C1F3C8010E94BE1AC817D9078C
:1031300090F78EEF9FEF03C08091BB0090E0DF918E
:10314000CF911F910F91089584E98093BC00089559
:1031500090939701809396010895909385028093B0
:1031600084020895E0918402F0918502309729F05D
:103170000190F081E02D0995089580E00895FC010B
:10318000A0918402B0918502109791F08091140172
:10319000882341F08091AA0287FF04C08081818347
:1031A00086E08083CF011296ED91FC9113970995EB
:1031B0000895E0918402F0918502309721F0048017
:1031C000F581E02D09950895A3E0B0E0EAEEF8E17D
:1031D0000C9405222091820230918302281739072E
:1031E000A1F09093830280938202E0918402F09197
:1031F0008502309751F023E029839B838A830680E0
:10320000F781E02DCE01019609952396E2E00C941A
:103210002122A3E0B0E0EFE0F9E10C940522209137
:1032200080023091810228173907A1F09093810222
:1032300080938002E0918402F0918502309751F0F2
:1032400024E029839B838A830680F781E02DCE01C9
:10325000019609952396E2E00C942122FC01329616
:1032600080911401882331F08091AA0287FF02C067
:103270009EE101C096E080E0915028F02191222348
:10328000D9F38F5FF9CF0895662351F1209114018E
:103290002223E9F02091AA0227FF19C0462F469564
:1032A000469546954E31E0F4677021E030E002C06B
:1032B000220F331F6A95E2F7FC01E40FF11D8281B2
:1032C00090E02823392381E0232B69F409C0FC0115
:1032D000329608962191621729F0E817F907D1F77D
:1032E00080E0089581E008959C01FC0132969FEFF3
:1032F00080E04191461789F09F3F19F4411101C0C8
:10330000982F8F5F8630A9F79F3F39F0F901E90FB9
:10331000F11D97FDFA956283089508959C012A5F37
:103320003F4FFC014281461301C012820196821771
:103330009307B9F70895262F2695269526952E31C1
:1033400068F4FC01E20FF11D677021E030E001C07C
:10335000220F6A95EAF78281282B22830895262F6F
:103360002695269526952E3170F4FC01E20FF11D6D
:10337000677021E030E001C0220F6A95EAF72095DE
:10338000828128232283089520911401222339F079
:103390002091AA0227FF03C00E949B1908950E9452
:1033A0007419089520911401222339F02091AA0262
:1033B00027FF03C00E94AF1908950E948E19089537
:1033C00020911401FC013296222331F08091AA024F
:1033D00087FF02C08EE101C086E0DF011D928A9561
:1033E000E9F7089545E050E00E942C2221E0892B66
:1033F00009F420E0822F089508950E94FC19089591
:1034000083E0809386020E94FD190895811102C015
:1034100081E001C082E0809386020E94FD19089538
:103420000E94061A089581E0809386020E94FD1989
:1034300008950E94131A089508950E941C1A089571
:103440000E941D1A08950E941C1A08950E941C1AB9
:103450000895CF930E9429040E941E130E94231AEC
:10346000C0E08C2F0E94F812811104C0CF5FCE30D3
:10347000C1F701C081E0CF91089585B7806885BF0D
:1034800085B7806885BF08951F920F920FB60F927F
:1034900011248F939F93AF93BF93809187028111E3
:1034A00013C08091C8029091C902A091CA02B09144
:1034B000CB024196A11DB11D8093C8029093C90211
:1034C000A093CA02B093CB02BF91AF919F918F910D
:1034D0000F900FBE0F901F9018958091D0028430EE
:1034E00031F10E94C5051092870220E488E190E046
:1034F0000FB6F894A895809360000FBE20936000EB
:1035000083B7817F846083BF83B7816083BF7894F2
:10351000889583B78E7F83BF0FB6F894A895809166
:103520006000886180936000109260000FBE089573
:103530000E9486090E94CA05089582E084BD93E036
:1035400095BD9AEF97BD80936E0008952FB7F894BC
:103550008091C8029091C902A091CA02B091CB0299
:103560002FBF08952FB7F8946091C8027091C902D7
:103570008091CA029091CB022FBF08959C014FB752
:10358000F8948091C8029091C902A091CA02B091AA
:10359000CB024FBF821B930B089578941F920F921A
:1035A0000FB60F9211248F939F93AF93BF93809187
:1035B000C8029091C902A091CA02B091CB020196B3
:1035C000A11DB11D8093C8029093C902A093CA02A5
:1035D000B093CB02BF91AF919F918F910F900FBE8F
:1035E0000F901F90189581E08093E00080E2809317
:1035F000D8001092C9008FE19EE40197F1F700C056
:10360000000087E090EBDC018093D9029093DA020E
:10361000A093DB02B093DC029CE088E10FB6F89443
:10362000A895809360000FBE90936000FFCF9CE050
:1036300088E10FB6F894A895809360000FBE909330
:103640006000FFCF8091A80208959B019091D00265
:103650009430F1F48F708093E9008FEF9091E8003F
:10366000815095FD06C095ED9A95F1F70000811106
:10367000F5CF8091E80085FF0BC0BA01C90140E099
:1036800050E00E94391D8091E8008E778093E80019
:10369000089543E050E0BC0183E00E94251B08959B
:1036A00045E050E0BC0182E00E94251B0895CF93C5
:1036B000DF93EC0180911401811105C048E050E0D6
:1036C000BE0181E00BC08091AA0287FF03C040E2E7
:1036D00083E002C048E081E050E0BE010E94251B6B
:1036E00080E2FE01A8E8B2E001900D928A95E1F730
:1036F000DF91CF9108958091CF02811109C00E947E
:10370000C41E0E94211F8091E20084608093E20029
:1037100008951092CF0208950E94191A0895609199
:10372000CC0281E0611101C080E00E94001A08957E
:103730009091D00281E0943009F080E06091CC0259
:103740000E94061A089542E061EC81E00E943D1E4D
:1037500042E061EC82E00E943D1E42E261EC83E0C7
:103760000E943D1E9091D00281E0943009F080E0EB
:103770006091CC020E94101A08958091D202833089
:1037800009F463C030F4813071F0823009F49DC0D7
:1037900008958A3009F489C08B3009F46EC08930ED
:1037A00009F0ABC020C08091D102813A09F0A5C0D8
:1037B0008091E800877F8093E8008091D502909106
:1037C000D602892B21F460E288E892E003C060E031
:1037D00080E090E070E00E947E1D8091E8008B7791
:1037E0008093E80008958091D102813209F085C06C
:1037F0008091D5029091D602009719F0029709F0B6
:103800007CC08091E800877F8093E8008091E80089
:1038100082FD05C08091D0028111F8CF6EC0209149
:10382000F3008091F20090E0922B029731F48091A6
:10383000F100813011F0863021F48091F100809305
:10384000A8028091E8008B7754C08091D102813A20
:1038500009F053C08091D5029091D602892B09F0CE
:103860004CC08091E800877F8093E8008091E80059
:1038700080FFFCCF8091140137C08091D10281324A
:10388000E1F58091D5029091D602892BB1F5809116
:10389000E800877F8093E8000E94721E8091D30227
:1038A000809314010E94860908958091D10281328B
:1038B00021F58091E800877F8093E8000E94721EC6
:1038C0008091D4028093A90208958091D102813A17
:1038D000A1F48091E800877F8093E8008091E80060
:1038E00080FFFCCF8091A9028093F1008091E800D5
:1038F0008E778093E8000E94721E089584B7877FB8
:1039000084BF0FB6F894A895809160008861809379
:103910006000109260000FBE90E080E80FB6F8944F
:1039200080936100909361000FBE0E94131A089566
:103930000E94C41E0E94211FE2EEF0E0808184609C
:10394000808378940E94AC2108958CE091E00E94DD
:10395000AD1808958091D0028530A9F48091D002ED
:10396000853079F40E946D1A8091CE028823B1F3DC
:103970000E94291A882391F30E94231D0E94860920
:10398000EDCF0E94981A089508959A014091D702A8
:103990005091D8020E94CD1C0895492F55274330DD
:1039A0005105C9F060F44130510581F042305105B4
:1039B00009F041C084E590E04EEB53E040C0413255
:1039C0005105E1F04232510531F135C082E190E01C
:1039D00042E154E034C099278130910549F028F044
:1039E000029749F5E4E8F3E005C0EAEBF3E002C032
:1039F000E6E9F3E0849190E0AF0121C06330710506
:103A0000D0F4660F771FFB01E057FE4F40815181D4
:103A100089E090E014C06330710568F4FB01EE0F9B
:103A2000FF1FE657FE4F40815181FB01E957FE4FD2
:103A3000808190E004C080E090E040E050E0F90137
:103A400051834083089580E189BD82E189BD09B435
:103A500000FEFDCF8091D8008F7D8093D8008091AB
:103A6000E00082608093E0008091E00081FDFCCF67
:103A70000895A0E0B0E0EFE3FDE10C94FF21EC013C
:103A80008B017A010E94911E811133C0E114F1046F
:103A900039F0F70180819181081B190BC80FD91FDC
:103AA000C12CD12C0115110519F18091E80085FD7B
:103AB00016C08091E8008E778093E800E114F1044D
:103AC00049F0F70180819181C80ED91ED182C08250
:103AD00085E00FC00E94911E882321F30AC08991BE
:103AE0008093F10001501109FFEFCF1ADF0ADACFFE
:103AF00080E0CDB7DEB7E8E00C941B222091D7021E
:103B00003091D8022617370748F06115710539F44E
:103B10002091E8002E772093E80001C0B901FC0154
:103B200020E06115710579F18091D0028823F1F1CF
:103B30008530F1F18091E80083FD3CC08091E80080
:103B400082FD2EC08091E80080FFEBCF2091F30032
:103B50008091F20090E0922B6115710551F0883050
:103B6000910538F421912093F1006150710901967B
:103B7000F3CF21E0089709F020E08091E8008E77EC
:103B80008093E800CECF2111CFCF0AC08091D00220
:103B9000882361F0853061F08091E80083FD0AC0E0
:103BA0008091E80082FFF2CF80E0089582E00895DE
:103BB00083E0089581E008952091D7023091D802E2
:103BC0002617370748F06115710539F42091E80090
:103BD0002E772093E80001C0B901FC0120E06115B7
:103BE000710591F18091D002882309F440C085309D
:103BF00009F43FC08091E80083FD3DC08091E8005A
:103C000082FD2FC08091E80080FFE9CF2091F30072
:103C10008091F20090E0922B6115710559F0883087
:103C2000910540F424912093F1003196615071097F
:103C30000196F2CF21E0089709F020E08091E8009A
:103C40008E778093E800CBCF2111CCCF0AC0809132
:103C5000D002882361F0853061F08091E80083FD17
:103C60000AC08091E80082FFF2CF80E0089582E0F0
:103C7000089583E0089581E00895982F973068F5BE
:103C80009093E900981739F07091EC002091ED00C5
:103C90005091F00003C0242F762F50E021FD02C088
:103CA0009F5FECCF3091EB003E7F3093EB00309183
:103CB000ED003D7F3093ED003091EB0031603093AB
:103CC000EB007093EC002093ED005093F0002091F6
:103CD000EE0027FDE5CF80E008958F708093E90026
:103CE00081E008958091D10287FF11C08091E800A2
:103CF00082FD05C08091D0028111F8CF11C0809162
:103D0000E8008B770BC08091D002882349F0809126
:103D1000E80080FFF8CF8091E8008E778093E8007C
:103D200008952091E4003091E50095E64091EC0083
:103D3000842F817040FF23C08091E80080FD1DC06A
:103D40008091D002882399F0853099F08091EB0022
:103D500085FD11C04091E4005091E500241735071E
:103D600029F3915011F09A01E1CF84E0089582E0A7
:103D7000089583E0089581E0089580E008954091DA
:103D8000E80042FFDDCF08950E94331F0E943B1FD1
:103D9000E0EEF0E0808181608083E8EDF0E08081FA
:103DA0008F77808319BCA7EDB0E08C918E7F8C93C8
:103DB00080818F7E80831092CF0208950F931F938E
:103DC000CF93DF930E94331F0E943B1FC8EDD0E0CA
:103DD00088818F77888388818068888388818F7DB8
:103DE000888319BC1092D0021092CC021092CE029D
:103DF0001092CD0200EE10E0F80180818B7F80836D
:103E000088818160888342E060E080E00E943D1EFE
:103E1000E1EEF0E080818E7F8083E2EEF0E0808151
:103E200081608083808188608083F80180818E7FBB
:103E30008083888180618883DF91CF911F910F916A
:103E40000895E8EDF0E080818F7E8083E7EDF0E07B
:103E500080818160808384E082BF81E08093CF0293
:103E60000E94DE1E0895E8EDF0E080818E7F808361
:103E70001092E20008951092DA001092E100089585
:103E80001F920F920FB60F9211242F933F934F93CF
:103E90005F936F937F938F939F93AF93BF93EF93B2
:103EA000FF938091E10082FF0BC08091E20082FFCE
:103EB00007C08091E1008B7F8093E1000E94AB21DD
:103EC0008091DA0080FF1FC08091D80080FF1BC066
:103ED0008091DA008E7F8093DA008091D90080FF94
:103EE0000DC080E189BD82E189BD09B400FEFDCF2E
:103EF00081E08093D0020E947B1B05C019BC109208
:103F0000D0020E94891B8091E10080FF19C080913E
:103F1000E20080FF15C08091E2008E7F8093E20076
:103F20008091E20080618093E2008091D8008062FD
:103F30008093D80019BC85E08093D0020E948F1B2B
:103F40008091E10084FF30C08091E20084FF2CC0AA
:103F500080E189BD82E189BD09B400FEFDCF809179
:103F6000D8008F7D8093D8008091E1008F7E809370
:103F7000E1008091E2008F7E8093E2008091E20078
:103F800081608093E2008091CC02882311F084E06C
:103F900007C08091E30087FD02C081E001C083E09B
:103FA0008093D0020E94981B8091E10083FF29C07A
:103FB0008091E20083FF25C08091E100877F80939C
:103FC000E10082E08093D0021092CC028091E10067
:103FD0008E7F8093E1008091E2008E7F8093E200EB
:103FE0008091E20080618093E20042E060E080E046
:103FF0000E943D1E8091F00088608093F0000E9436
:104000008C1BFF91EF91BF91AF919F918F917F9109
:104010006F915F914F913F912F910F900FBE0F9035
:104020001F9018951F920F920FB60F9211242F9385
:104030003F934F935F936F937F938F939F93AF9330
:10404000BF93CF93DF93EF93FF93C091E900CF70BD
:104050008091EC00D82FD17080FDD0E81092E9005B
:104060008091F000877F8093F00078940E94562022
:104070001092E9008091F00088608093F000CD2BD1
:10408000CF70C093E900FF91EF91DF91CF91BF9185
:10409000AF919F918F917F916F915F914F913F91E0
:1040A0002F910F900FBE0F901F901895AAE2B0E0CD
:1040B000ECE5F0E20C940422E1EDF2E08091F100F5
:1040C000819322E0E93DF207C9F70E94BD1B809170
:1040D000E80083FF2EC18091D1029091D202492F36
:1040E00050E04A30510508F024C1FA01EE56FF4F66
:1040F0000C94EF21803821F0823809F01AC108C0F1
:104100008091CD029091CE02992389F082600FC0F8
:104110008091D5028F70873008F00BC18093E90041
:104120008091EB0085FB882780F91092E90090913F
:10413000E800977F9093E8008093F1001092F100DF
:10414000D1C0282F2D7F09F0F4C0882319F08230C8
:1041500061F0EFC08091D302813009F0EAC0933062
:1041600009F080E08093CE022EC08091D3028111AD
:104170002AC08091D5028F702FEF280F263008F0CB
:10418000D8C08093E9002091EB0020FF1CC0933041
:1041900021F48091EB00806214C09091EB0090615B
:1041A0009093EB0021E030E0A90102C0440F551FBD
:1041B0008A95E2F74093EA001092EA008091EB00C2
:1041C00088608093EB001092E9008091E800877F7F
:1041D0008093E8000E94721EACC08111AAC01091A9
:1041E000D3021F778091E3008078812B8093E300D6
:1041F0008091E800877F8093E8000E94721E809182
:10420000E80080FFFCCF8091E30080688093E300AA
:10421000111102C082E001C083E08093D00289C006
:104220008058823008F085C08091D3029091D402EA
:104230008C3D53E0950779F583E08A838AE2898390
:104240004FB7F894DE01139620E03EE051E2E32FF1
:10425000F0E050935700E49120FF03C0E295EF7027
:104260003F5FEF708E2F90E0EA3010F0C79601C0EC
:10427000C0968D939D932F5F243149F74FBF809156
:10428000E800877F8093E8006AE270E0CE01019643
:104290000E947E1D16C06091D5027091D602AE01BB
:1042A0004F5F5F4F0E94C51CBC01892B09F441C0C0
:1042B0009091E800977F9093E80089819A810E940D
:1042C000DC1D8091E8008B778093E80032C0803855
:1042D00081F58091E800877F8093E8008091CC028F
:1042E0008093F1008091E8008E7772CF811121C018
:1042F0008091D3029091D40299270297D4F48091AF
:10430000E800877F8093E8008091D3028093CC02FD
:104310000E94721E8091CC02811106C08091E30040
:1043200087FD02C081E001C084E08093D0020E943A
:10433000A31B8091E80083FF0AC08091E800877F7B
:104340008093E8008091EB0080628093EB00AA9656
:10435000E3E00C9420220895CF938091D00288232B
:10436000A1F0C091E900CF709091EC00892F81708D
:1043700090FD80E8C82B1092E9008091E80083FD51
:104380000E945620CF70C093E900CF910895AA1BD8
:10439000BB1B51E107C0AA1FBB1FA617B70710F030
:1043A000A61BB70B881F991F5A95A9F78095909562
:1043B000BC01CD01089597FB072E16F4009407D099
:1043C00077FD09D00E94C72107FC05D03EF49095E7
:1043D00081959F4F0895709561957F4F0895EE0FD9
:1043E000FF1F0590F491E02D09942F923F924F9278
:1043F0005F926F927F928F929F92AF92BF92CF9275
:10440000DF92EF92FF920F931F93CF93DF93CDB77D
:10441000DEB7CA1BDB0B0FB6F894DEBF0FBECDBFF5
:1044200009942A88398848885F846E847D848C84C6
:104430009B84AA84B984C884DF80EE80FD800C81CF
:104440001B81AA81B981CE0FD11D0FB6F894DEBFB2
:104450000FBECDBFED010895FB01DC0104C08D91BD
:104460000190801921F441505040C8F7881B990BE6
:104470000895FB01DC0102C001900D9241505040B3
:10448000D8F70895F999FECF92BD81BDF89A992782
:1044900080B50895A8E1B0E042E050E00C947622A7
:1044A000262FF999FECF92BD81BDF89A019700B4ED
:1044B000021639F01FBA20BD0FB6F894FA9AF99A8D
:1044C0000FBE08950396272F0E9451220E9450226A
:1044D000252F0E945122242F0C9451220196272F20
:1044E0000E9451220C945022DC01CB01FC01F9996D
:1044F000FECF06C0F2BDE1BDF89A319600B40D9230
:0C45000041505040B8F70895F894FFCFE8
:10450C0020003202280850011E0A1401221B571BDE
:10451C00501B491B01E200E900EA00B500B600B7E8
:10452C0000CD008301CC008A019201940121022369
:10453C000224022502260227022A02B300B4006FCD
:10454C000070009F01CB019F02A002818283E200D8
:10455C00E900EA00B500B600B700CD008301CC003D
:10456C008A019201940121022302240225022602CF
:10457C0027022A02B300B4006F0070009F01CB0128
:10458C009F02A00281828340476DD80491042404C9
:06459C00D003E903020454
:00000001FF
